{
    "_format": "hh-sol-artifact-1",
    "contractName": "posRLYTestERC20",
    "sourceName": "contracts/posRLYTestERC20.sol",
    "abi": [
        {
            "inputs": [],
            "stateMutability": "nonpayable",
            "type": "constructor"
        },
        {
            "anonymous": false,
            "inputs": [
                {
                    "indexed": true,
                    "internalType": "address",
                    "name": "owner",
                    "type": "address"
                },
                {
                    "indexed": true,
                    "internalType": "address",
                    "name": "spender",
                    "type": "address"
                },
                {
                    "indexed": false,
                    "internalType": "uint256",
                    "name": "value",
                    "type": "uint256"
                }
            ],
            "name": "Approval",
            "type": "event"
        },
        {
            "anonymous": false,
            "inputs": [
                {
                    "indexed": false,
                    "internalType": "address",
                    "name": "userAddress",
                    "type": "address"
                },
                {
                    "indexed": false,
                    "internalType": "address payable",
                    "name": "relayerAddress",
                    "type": "address"
                },
                {
                    "indexed": false,
                    "internalType": "bytes",
                    "name": "functionSignature",
                    "type": "bytes"
                }
            ],
            "name": "MetaTransactionExecuted",
            "type": "event"
        },
        {
            "anonymous": false,
            "inputs": [
                {
                    "indexed": true,
                    "internalType": "bytes32",
                    "name": "role",
                    "type": "bytes32"
                },
                {
                    "indexed": true,
                    "internalType": "bytes32",
                    "name": "previousAdminRole",
                    "type": "bytes32"
                },
                {
                    "indexed": true,
                    "internalType": "bytes32",
                    "name": "newAdminRole",
                    "type": "bytes32"
                }
            ],
            "name": "RoleAdminChanged",
            "type": "event"
        },
        {
            "anonymous": false,
            "inputs": [
                {
                    "indexed": true,
                    "internalType": "bytes32",
                    "name": "role",
                    "type": "bytes32"
                },
                {
                    "indexed": true,
                    "internalType": "address",
                    "name": "account",
                    "type": "address"
                },
                {
                    "indexed": true,
                    "internalType": "address",
                    "name": "sender",
                    "type": "address"
                }
            ],
            "name": "RoleGranted",
            "type": "event"
        },
        {
            "anonymous": false,
            "inputs": [
                {
                    "indexed": true,
                    "internalType": "bytes32",
                    "name": "role",
                    "type": "bytes32"
                },
                {
                    "indexed": true,
                    "internalType": "address",
                    "name": "account",
                    "type": "address"
                },
                {
                    "indexed": true,
                    "internalType": "address",
                    "name": "sender",
                    "type": "address"
                }
            ],
            "name": "RoleRevoked",
            "type": "event"
        },
        {
            "anonymous": false,
            "inputs": [
                {
                    "indexed": true,
                    "internalType": "address",
                    "name": "from",
                    "type": "address"
                },
                {
                    "indexed": true,
                    "internalType": "address",
                    "name": "to",
                    "type": "address"
                },
                {
                    "indexed": false,
                    "internalType": "uint256",
                    "name": "value",
                    "type": "uint256"
                }
            ],
            "name": "Transfer",
            "type": "event"
        },
        {
            "inputs": [],
            "name": "CHILD_CHAIN_ID",
            "outputs": [
                {
                    "internalType": "uint256",
                    "name": "",
                    "type": "uint256"
                }
            ],
            "stateMutability": "view",
            "type": "function"
        },
        {
            "inputs": [],
            "name": "CHILD_CHAIN_ID_BYTES",
            "outputs": [
                {
                    "internalType": "bytes",
                    "name": "",
                    "type": "bytes"
                }
            ],
            "stateMutability": "view",
            "type": "function"
        },
        {
            "inputs": [],
            "name": "DEFAULT_ADMIN_ROLE",
            "outputs": [
                {
                    "internalType": "bytes32",
                    "name": "",
                    "type": "bytes32"
                }
            ],
            "stateMutability": "view",
            "type": "function"
        },
        {
            "inputs": [],
            "name": "DEPOSITOR_ROLE",
            "outputs": [
                {
                    "internalType": "bytes32",
                    "name": "",
                    "type": "bytes32"
                }
            ],
            "stateMutability": "view",
            "type": "function"
        },
        {
            "inputs": [],
            "name": "ERC712_VERSION",
            "outputs": [
                {
                    "internalType": "string",
                    "name": "",
                    "type": "string"
                }
            ],
            "stateMutability": "view",
            "type": "function"
        },
        {
            "inputs": [],
            "name": "ROOT_CHAIN_ID",
            "outputs": [
                {
                    "internalType": "uint256",
                    "name": "",
                    "type": "uint256"
                }
            ],
            "stateMutability": "view",
            "type": "function"
        },
        {
            "inputs": [],
            "name": "ROOT_CHAIN_ID_BYTES",
            "outputs": [
                {
                    "internalType": "bytes",
                    "name": "",
                    "type": "bytes"
                }
            ],
            "stateMutability": "view",
            "type": "function"
        },
        {
            "inputs": [
                {
                    "internalType": "address",
                    "name": "owner",
                    "type": "address"
                },
                {
                    "internalType": "address",
                    "name": "spender",
                    "type": "address"
                }
            ],
            "name": "allowance",
            "outputs": [
                {
                    "internalType": "uint256",
                    "name": "",
                    "type": "uint256"
                }
            ],
            "stateMutability": "view",
            "type": "function"
        },
        {
            "inputs": [
                {
                    "internalType": "address",
                    "name": "spender",
                    "type": "address"
                },
                {
                    "internalType": "uint256",
                    "name": "amount",
                    "type": "uint256"
                }
            ],
            "name": "approve",
            "outputs": [
                {
                    "internalType": "bool",
                    "name": "",
                    "type": "bool"
                }
            ],
            "stateMutability": "nonpayable",
            "type": "function"
        },
        {
            "inputs": [
                {
                    "internalType": "address",
                    "name": "account",
                    "type": "address"
                }
            ],
            "name": "balanceOf",
            "outputs": [
                {
                    "internalType": "uint256",
                    "name": "",
                    "type": "uint256"
                }
            ],
            "stateMutability": "view",
            "type": "function"
        },
        {
            "inputs": [],
            "name": "decimals",
            "outputs": [
                {
                    "internalType": "uint8",
                    "name": "",
                    "type": "uint8"
                }
            ],
            "stateMutability": "view",
            "type": "function"
        },
        {
            "inputs": [
                {
                    "internalType": "address",
                    "name": "spender",
                    "type": "address"
                },
                {
                    "internalType": "uint256",
                    "name": "subtractedValue",
                    "type": "uint256"
                }
            ],
            "name": "decreaseAllowance",
            "outputs": [
                {
                    "internalType": "bool",
                    "name": "",
                    "type": "bool"
                }
            ],
            "stateMutability": "nonpayable",
            "type": "function"
        },
        {
            "inputs": [
                {
                    "internalType": "address",
                    "name": "user",
                    "type": "address"
                },
                {
                    "internalType": "bytes",
                    "name": "depositData",
                    "type": "bytes"
                }
            ],
            "name": "deposit",
            "outputs": [],
            "stateMutability": "nonpayable",
            "type": "function"
        },
        {
            "inputs": [
                {
                    "internalType": "address",
                    "name": "userAddress",
                    "type": "address"
                },
                {
                    "internalType": "bytes",
                    "name": "functionSignature",
                    "type": "bytes"
                },
                {
                    "internalType": "bytes32",
                    "name": "sigR",
                    "type": "bytes32"
                },
                {
                    "internalType": "bytes32",
                    "name": "sigS",
                    "type": "bytes32"
                },
                {
                    "internalType": "uint8",
                    "name": "sigV",
                    "type": "uint8"
                }
            ],
            "name": "executeMetaTransaction",
            "outputs": [
                {
                    "internalType": "bytes",
                    "name": "",
                    "type": "bytes"
                }
            ],
            "stateMutability": "payable",
            "type": "function"
        },
        {
            "inputs": [],
            "name": "getChainId",
            "outputs": [
                {
                    "internalType": "uint256",
                    "name": "",
                    "type": "uint256"
                }
            ],
            "stateMutability": "view",
            "type": "function"
        },
        {
            "inputs": [],
            "name": "getDomainSeperator",
            "outputs": [
                {
                    "internalType": "bytes32",
                    "name": "",
                    "type": "bytes32"
                }
            ],
            "stateMutability": "view",
            "type": "function"
        },
        {
            "inputs": [
                {
                    "internalType": "address",
                    "name": "user",
                    "type": "address"
                }
            ],
            "name": "getNonce",
            "outputs": [
                {
                    "internalType": "uint256",
                    "name": "nonce",
                    "type": "uint256"
                }
            ],
            "stateMutability": "view",
            "type": "function"
        },
        {
            "inputs": [
                {
                    "internalType": "bytes32",
                    "name": "role",
                    "type": "bytes32"
                }
            ],
            "name": "getRoleAdmin",
            "outputs": [
                {
                    "internalType": "bytes32",
                    "name": "",
                    "type": "bytes32"
                }
            ],
            "stateMutability": "view",
            "type": "function"
        },
        {
            "inputs": [
                {
                    "internalType": "bytes32",
                    "name": "role",
                    "type": "bytes32"
                },
                {
                    "internalType": "uint256",
                    "name": "index",
                    "type": "uint256"
                }
            ],
            "name": "getRoleMember",
            "outputs": [
                {
                    "internalType": "address",
                    "name": "",
                    "type": "address"
                }
            ],
            "stateMutability": "view",
            "type": "function"
        },
        {
            "inputs": [
                {
                    "internalType": "bytes32",
                    "name": "role",
                    "type": "bytes32"
                }
            ],
            "name": "getRoleMemberCount",
            "outputs": [
                {
                    "internalType": "uint256",
                    "name": "",
                    "type": "uint256"
                }
            ],
            "stateMutability": "view",
            "type": "function"
        },
        {
            "inputs": [
                {
                    "internalType": "bytes32",
                    "name": "role",
                    "type": "bytes32"
                },
                {
                    "internalType": "address",
                    "name": "account",
                    "type": "address"
                }
            ],
            "name": "grantRole",
            "outputs": [],
            "stateMutability": "nonpayable",
            "type": "function"
        },
        {
            "inputs": [
                {
                    "internalType": "bytes32",
                    "name": "role",
                    "type": "bytes32"
                },
                {
                    "internalType": "address",
                    "name": "account",
                    "type": "address"
                }
            ],
            "name": "hasRole",
            "outputs": [
                {
                    "internalType": "bool",
                    "name": "",
                    "type": "bool"
                }
            ],
            "stateMutability": "view",
            "type": "function"
        },
        {
            "inputs": [
                {
                    "internalType": "address",
                    "name": "spender",
                    "type": "address"
                },
                {
                    "internalType": "uint256",
                    "name": "addedValue",
                    "type": "uint256"
                }
            ],
            "name": "increaseAllowance",
            "outputs": [
                {
                    "internalType": "bool",
                    "name": "",
                    "type": "bool"
                }
            ],
            "stateMutability": "nonpayable",
            "type": "function"
        },
        {
            "inputs": [
                {
                    "internalType": "string",
                    "name": "name_",
                    "type": "string"
                },
                {
                    "internalType": "string",
                    "name": "symbol_",
                    "type": "string"
                },
                {
                    "internalType": "uint8",
                    "name": "decimals_",
                    "type": "uint8"
                },
                {
                    "internalType": "address",
                    "name": "childChainManager",
                    "type": "address"
                },
                {
                    "internalType": "uint256",
                    "name": "amount",
                    "type": "uint256"
                }
            ],
            "name": "initialize",
            "outputs": [],
            "stateMutability": "nonpayable",
            "type": "function"
        },
        {
            "inputs": [],
            "name": "name",
            "outputs": [
                {
                    "internalType": "string",
                    "name": "",
                    "type": "string"
                }
            ],
            "stateMutability": "view",
            "type": "function"
        },
        {
            "inputs": [
                {
                    "internalType": "bytes32",
                    "name": "role",
                    "type": "bytes32"
                },
                {
                    "internalType": "address",
                    "name": "account",
                    "type": "address"
                }
            ],
            "name": "renounceRole",
            "outputs": [],
            "stateMutability": "nonpayable",
            "type": "function"
        },
        {
            "inputs": [
                {
                    "internalType": "bytes32",
                    "name": "role",
                    "type": "bytes32"
                },
                {
                    "internalType": "address",
                    "name": "account",
                    "type": "address"
                }
            ],
            "name": "revokeRole",
            "outputs": [],
            "stateMutability": "nonpayable",
            "type": "function"
        },
        {
            "inputs": [],
            "name": "symbol",
            "outputs": [
                {
                    "internalType": "string",
                    "name": "",
                    "type": "string"
                }
            ],
            "stateMutability": "view",
            "type": "function"
        },
        {
            "inputs": [],
            "name": "totalSupply",
            "outputs": [
                {
                    "internalType": "uint256",
                    "name": "",
                    "type": "uint256"
                }
            ],
            "stateMutability": "view",
            "type": "function"
        },
        {
            "inputs": [
                {
                    "internalType": "address",
                    "name": "recipient",
                    "type": "address"
                },
                {
                    "internalType": "uint256",
                    "name": "amount",
                    "type": "uint256"
                }
            ],
            "name": "transfer",
            "outputs": [
                {
                    "internalType": "bool",
                    "name": "",
                    "type": "bool"
                }
            ],
            "stateMutability": "nonpayable",
            "type": "function"
        },
        {
            "inputs": [
                {
                    "internalType": "address",
                    "name": "sender",
                    "type": "address"
                },
                {
                    "internalType": "address",
                    "name": "recipient",
                    "type": "address"
                },
                {
                    "internalType": "uint256",
                    "name": "amount",
                    "type": "uint256"
                }
            ],
            "name": "transferFrom",
            "outputs": [
                {
                    "internalType": "bool",
                    "name": "",
                    "type": "bool"
                }
            ],
            "stateMutability": "nonpayable",
            "type": "function"
        },
        {
            "inputs": [
                {
                    "internalType": "uint256",
                    "name": "amount",
                    "type": "uint256"
                }
            ],
            "name": "withdraw",
            "outputs": [],
            "stateMutability": "nonpayable",
            "type": "function"
        }
    ],
    "bytecode": "0x60806040526000600860006101000a81548160ff0219169083151502179055503480156200002c57600080fd5b50604051806020016040528060008152506040518060200160405280600081525081600390816200005e91906200030f565b5080600490816200007091906200030f565b506012600560006101000a81548160ff021916908360ff1602179055505050620003f6565b600081519050919050565b7f4e487b7100000000000000000000000000000000000000000000000000000000600052604160045260246000fd5b7f4e487b7100000000000000000000000000000000000000000000000000000000600052602260045260246000fd5b600060028204905060018216806200011757607f821691505b6020821081036200012d576200012c620000cf565b5b50919050565b60008190508160005260206000209050919050565b60006020601f8301049050919050565b600082821b905092915050565b600060088302620001977fffffffffffffffffffffffffffffffffffffffffffffffffffffffffffffffff8262000158565b620001a3868362000158565b95508019841693508086168417925050509392505050565b6000819050919050565b6000819050919050565b6000620001f0620001ea620001e484620001bb565b620001c5565b620001bb565b9050919050565b6000819050919050565b6200020c83620001cf565b620002246200021b82620001f7565b84845462000165565b825550505050565b600090565b6200023b6200022c565b6200024881848462000201565b505050565b5b8181101562000270576200026460008262000231565b6001810190506200024e565b5050565b601f821115620002bf57620002898162000133565b620002948462000148565b81016020851015620002a4578190505b620002bc620002b38562000148565b8301826200024d565b50505b505050565b600082821c905092915050565b6000620002e460001984600802620002c4565b1980831691505092915050565b6000620002ff8383620002d1565b9150826002028217905092915050565b6200031a8262000095565b67ffffffffffffffff811115620003365762000335620000a0565b5b620003428254620000fe565b6200034f82828562000274565b600060209050601f83116001811462000387576000841562000372578287015190505b6200037e8582620002f1565b865550620003ee565b601f198416620003978662000133565b60005b82811015620003c1578489015182556001820191506020850194506020810190506200039a565b86831015620003e15784890151620003dd601f891682620002d1565b8355505b6001600288020188555050505b505050505050565b61402880620004066000396000f3fe6080604052600436106101e35760003560e01c80633950935111610102578063a217fddf11610095578063ca15c87311610064578063ca15c8731461074d578063cf2c52cb1461078a578063d547741f146107b3578063dd62ed3e146107dc576101e3565b8063a217fddf1461067d578063a3b0b5a3146106a8578063a457c2d7146106d3578063a9059cbb14610710576101e3565b80638acfcaf7116100d15780638acfcaf7146105ad5780639010d07c146105d857806391d148541461061557806395d89b4114610652576101e3565b806339509351146104df578063626381a01461051c5780636c9452211461054757806370a0823114610570576101e3565b806323b872dd1161017a5780632f2ff15d116101495780632f2ff15d14610437578063313ce567146104605780633408e4701461048b57806336568abe146104b6576101e3565b806323b872dd14610357578063248a9ca3146103945780632d0335ab146103d15780632e1a7d4d1461040e576101e3565b80630dd7531a116101b65780630dd7531a146102ab5780630f7e5970146102d657806318160ddd1461030157806320379ee51461032c576101e3565b806306fdde03146101e8578063095ea7b3146102135780630b54817c146102505780630c53c51c1461027b575b600080fd5b3480156101f457600080fd5b506101fd610819565b60405161020a9190612674565b60405180910390f35b34801561021f57600080fd5b5061023a6004803603810190610235919061273e565b6108ab565b6040516102479190612799565b60405180910390f35b34801561025c57600080fd5b506102656108c9565b6040516102729190612809565b60405180910390f35b610295600480360381019061029091906129cf565b610902565b6040516102a29190612809565b60405180910390f35b3480156102b757600080fd5b506102c0610b74565b6040516102cd9190612809565b60405180910390f35b3480156102e257600080fd5b506102eb610bad565b6040516102f89190612674565b60405180910390f35b34801561030d57600080fd5b50610316610be6565b6040516103239190612a75565b60405180910390f35b34801561033857600080fd5b50610341610bf0565b60405161034e9190612a9f565b60405180910390f35b34801561036357600080fd5b5061037e60048036038101906103799190612aba565b610bfa565b60405161038b9190612799565b60405180910390f35b3480156103a057600080fd5b506103bb60048036038101906103b69190612b0d565b610cd3565b6040516103c89190612a9f565b60405180910390f35b3480156103dd57600080fd5b506103f860048036038101906103f39190612b3a565b610cf3565b6040516104059190612a75565b60405180910390f35b34801561041a57600080fd5b5061043560048036038101906104309190612b67565b610d3c565b005b34801561044357600080fd5b5061045e60048036038101906104599190612b94565b610d50565b005b34801561046c57600080fd5b50610475610dc4565b6040516104829190612be3565b60405180910390f35b34801561049757600080fd5b506104a0610ddb565b6040516104ad9190612a75565b60405180910390f35b3480156104c257600080fd5b506104dd60048036038101906104d89190612b94565b610de8565b005b3480156104eb57600080fd5b506105066004803603810190610501919061273e565b610e6b565b6040516105139190612799565b60405180910390f35b34801561052857600080fd5b50610531610f1e565b60405161053e9190612a75565b60405180910390f35b34801561055357600080fd5b5061056e60048036038101906105699190612c5e565b610f23565b005b34801561057c57600080fd5b5061059760048036038101906105929190612b3a565b611136565b6040516105a49190612a75565b60405180910390f35b3480156105b957600080fd5b506105c261117e565b6040516105cf9190612a75565b60405180910390f35b3480156105e457600080fd5b506105ff60048036038101906105fa9190612d1a565b611183565b60405161060c9190612d69565b60405180910390f35b34801561062157600080fd5b5061063c60048036038101906106379190612b94565b6111b5565b6040516106499190612799565b60405180910390f35b34801561065e57600080fd5b506106676111e7565b6040516106749190612674565b60405180910390f35b34801561068957600080fd5b50610692611279565b60405161069f9190612a9f565b60405180910390f35b3480156106b457600080fd5b506106bd611280565b6040516106ca9190612a9f565b60405180910390f35b3480156106df57600080fd5b506106fa60048036038101906106f5919061273e565b6112a4565b6040516107079190612799565b60405180910390f35b34801561071c57600080fd5b506107376004803603810190610732919061273e565b611371565b6040516107449190612799565b60405180910390f35b34801561075957600080fd5b50610774600480360381019061076f9190612b0d565b61138f565b6040516107819190612a75565b60405180910390f35b34801561079657600080fd5b506107b160048036038101906107ac9190612dda565b6113b6565b005b3480156107bf57600080fd5b506107da60048036038101906107d59190612b94565b611450565b005b3480156107e857600080fd5b5061080360048036038101906107fe9190612e3a565b6114c4565b6040516108109190612a75565b60405180910390f35b60606003805461082890612ea9565b80601f016020809104026020016040519081016040528092919081815260200182805461085490612ea9565b80156108a15780601f10610876576101008083540402835291602001916108a1565b820191906000526020600020905b81548152906001019060200180831161088457829003601f168201915b5050505050905090565b60006108bf6108b861154b565b848461155a565b6001905092915050565b6040518060400160405280600181526020017f890000000000000000000000000000000000000000000000000000000000000081525081565b606060006040518060600160405280600a60008a73ffffffffffffffffffffffffffffffffffffffff1673ffffffffffffffffffffffffffffffffffffffff1681526020019081526020016000205481526020018873ffffffffffffffffffffffffffffffffffffffff1681526020018781525090506109858782878787611723565b6109c4576040517f08c379a00000000000000000000000000000000000000000000000000000000081526004016109bb90612f4c565b60405180910390fd5b610a176001600a60008a73ffffffffffffffffffffffffffffffffffffffff1673ffffffffffffffffffffffffffffffffffffffff1681526020019081526020016000205461182b90919063ffffffff16565b600a60008973ffffffffffffffffffffffffffffffffffffffff1673ffffffffffffffffffffffffffffffffffffffff168152602001908152602001600020819055507f5845892132946850460bff5a0083f71031bc5bf9aadcd40f1de79423eac9b10b873388604051610a8d93929190612f8d565b60405180910390a16000803073ffffffffffffffffffffffffffffffffffffffff16888a604051602001610ac292919061304f565b604051602081830303815290604052604051610ade9190613077565b6000604051808303816000865af19150503d8060008114610b1b576040519150601f19603f3d011682016040523d82523d6000602084013e610b20565b606091505b509150915081610b65576040517f08c379a0000000000000000000000000000000000000000000000000000000008152600401610b5c906130da565b60405180910390fd5b80935050505095945050505050565b6040518060400160405280600181526020017f010000000000000000000000000000000000000000000000000000000000000081525081565b6040518060400160405280600181526020017f310000000000000000000000000000000000000000000000000000000000000081525081565b6000600254905090565b6000600954905090565b6000610c07848484611889565b610cc884610c1361154b565b610cc385604051806060016040528060288152602001613fa660289139600160008b73ffffffffffffffffffffffffffffffffffffffff1673ffffffffffffffffffffffffffffffffffffffff1681526020019081526020016000206000610c7961154b565b73ffffffffffffffffffffffffffffffffffffffff1673ffffffffffffffffffffffffffffffffffffffff16815260200190815260200160002054611b1c9092919063ffffffff16565b61155a565b600190509392505050565b600060066000838152602001908152602001600020600201549050919050565b6000600a60008373ffffffffffffffffffffffffffffffffffffffff1673ffffffffffffffffffffffffffffffffffffffff168152602001908152602001600020549050919050565b610d4d610d4761154b565b82611b80565b50565b610d776006600084815260200190815260200160002060020154610d7261154b565b6111b5565b610db6576040517f08c379a0000000000000000000000000000000000000000000000000000000008152600401610dad9061316c565b60405180910390fd5b610dc08282611d2d565b5050565b6000600560009054906101000a900460ff16905090565b6000804690508091505090565b610df061154b565b73ffffffffffffffffffffffffffffffffffffffff168173ffffffffffffffffffffffffffffffffffffffff1614610e5d576040517f08c379a0000000000000000000000000000000000000000000000000000000008152600401610e54906131fe565b60405180910390fd5b610e678282611dc1565b5050565b6000610f14610e7861154b565b84610f0f8560016000610e8961154b565b73ffffffffffffffffffffffffffffffffffffffff1673ffffffffffffffffffffffffffffffffffffffff16815260200190815260200160002060008973ffffffffffffffffffffffffffffffffffffffff1673ffffffffffffffffffffffffffffffffffffffff1681526020019081526020016000205461182b90919063ffffffff16565b61155a565b6001905092915050565b608981565b600860009054906101000a900460ff1615610f73576040517f08c379a0000000000000000000000000000000000000000000000000000000008152600401610f6a9061326a565b60405180910390fd5b610fc087878080601f016020809104026020016040519081016040528093929190818152602001838380828437600081840152601f19601f82011690508083019250505050505050611e55565b61100d85858080601f016020809104026020016040519081016040528093929190818152602001838380828437600081840152601f19601f82011690508083019250505050505050611e68565b61101683611e7b565b611040858560405160200161102c929190613306565b604051602081830303815290604052611e99565b6110546000801b61104f61154b565b611ecb565b61107e7f8f4f2da22e8ac8f11e15f9fc141cddbb5deea8800186560abb6e68c5496619a983611ecb565b61110187878080601f016020809104026020016040519081016040528093929190818152602001838380828437600081840152601f19601f820116905080830192505050505050506040518060400160405280600181526020017f3100000000000000000000000000000000000000000000000000000000000000815250611ed9565b61111261110c61154b565b82611f52565b6001600860006101000a81548160ff02191690831515021790555050505050505050565b60008060008373ffffffffffffffffffffffffffffffffffffffff1673ffffffffffffffffffffffffffffffffffffffff168152602001908152602001600020549050919050565b600181565b60006111ad82600660008681526020019081526020016000206000016120e590919063ffffffff16565b905092915050565b60006111df82600660008681526020019081526020016000206000016120ff90919063ffffffff16565b905092915050565b6060600480546111f690612ea9565b80601f016020809104026020016040519081016040528092919081815260200182805461122290612ea9565b801561126f5780601f106112445761010080835404028352916020019161126f565b820191906000526020600020905b81548152906001019060200180831161125257829003601f168201915b5050505050905090565b6000801b81565b7f8f4f2da22e8ac8f11e15f9fc141cddbb5deea8800186560abb6e68c5496619a981565b60006113676112b161154b565b8461136285604051806060016040528060258152602001613fce60259139600160006112db61154b565b73ffffffffffffffffffffffffffffffffffffffff1673ffffffffffffffffffffffffffffffffffffffff16815260200190815260200160002060008a73ffffffffffffffffffffffffffffffffffffffff1673ffffffffffffffffffffffffffffffffffffffff16815260200190815260200160002054611b1c9092919063ffffffff16565b61155a565b6001905092915050565b600061138561137e61154b565b8484611889565b6001905092915050565b60006113af6006600084815260200190815260200160002060000161212f565b9050919050565b7f8f4f2da22e8ac8f11e15f9fc141cddbb5deea8800186560abb6e68c5496619a96113e8816113e361154b565b6111b5565b60079061142b576040517f08c379a000000000000000000000000000000000000000000000000000000000815260040161142291906133c3565b60405180910390fd5b506000838381019061143d9190612b67565b90506114498582611f52565b5050505050565b611477600660008481526020019081526020016000206002015461147261154b565b6111b5565b6114b6576040517f08c379a00000000000000000000000000000000000000000000000000000000081526004016114ad90613457565b60405180910390fd5b6114c08282611dc1565b5050565b6000600160008473ffffffffffffffffffffffffffffffffffffffff1673ffffffffffffffffffffffffffffffffffffffff16815260200190815260200160002060008373ffffffffffffffffffffffffffffffffffffffff1673ffffffffffffffffffffffffffffffffffffffff16815260200190815260200160002054905092915050565b6000611555612144565b905090565b600073ffffffffffffffffffffffffffffffffffffffff168373ffffffffffffffffffffffffffffffffffffffff16036115c9576040517f08c379a00000000000000000000000000000000000000000000000000000000081526004016115c0906134e9565b60405180910390fd5b600073ffffffffffffffffffffffffffffffffffffffff168273ffffffffffffffffffffffffffffffffffffffff1603611638576040517f08c379a000000000000000000000000000000000000000000000000000000000815260040161162f9061357b565b60405180910390fd5b80600160008573ffffffffffffffffffffffffffffffffffffffff1673ffffffffffffffffffffffffffffffffffffffff16815260200190815260200160002060008473ffffffffffffffffffffffffffffffffffffffff1673ffffffffffffffffffffffffffffffffffffffff168152602001908152602001600020819055508173ffffffffffffffffffffffffffffffffffffffff168373ffffffffffffffffffffffffffffffffffffffff167f8c5be1e5ebec7d5bd14f71427d1e84f3dd0314c0f7b2291e5b200ac8c7c3b925836040516117169190612a75565b60405180910390a3505050565b60008073ffffffffffffffffffffffffffffffffffffffff168673ffffffffffffffffffffffffffffffffffffffff1603611793576040517f08c379a000000000000000000000000000000000000000000000000000000000815260040161178a9061360d565b60405180910390fd5b60016117a66117a1876121f4565b61225c565b838686604051600081526020016040526040516117c6949392919061362d565b6020604051602081039080840390855afa1580156117e8573d6000803e3d6000fd5b5050506020604051035173ffffffffffffffffffffffffffffffffffffffff168673ffffffffffffffffffffffffffffffffffffffff1614905095945050505050565b600080828461183a91906136a1565b90508381101561187f576040517f08c379a000000000000000000000000000000000000000000000000000000000815260040161187690613721565b60405180910390fd5b8091505092915050565b600073ffffffffffffffffffffffffffffffffffffffff168373ffffffffffffffffffffffffffffffffffffffff16036118f8576040517f08c379a00000000000000000000000000000000000000000000000000000000081526004016118ef906137b3565b60405180910390fd5b600073ffffffffffffffffffffffffffffffffffffffff168273ffffffffffffffffffffffffffffffffffffffff1603611967576040517f08c379a000000000000000000000000000000000000000000000000000000000815260040161195e90613845565b60405180910390fd5b611972838383612295565b6119dd81604051806060016040528060268152602001613f80602691396000808773ffffffffffffffffffffffffffffffffffffffff1673ffffffffffffffffffffffffffffffffffffffff16815260200190815260200160002054611b1c9092919063ffffffff16565b6000808573ffffffffffffffffffffffffffffffffffffffff1673ffffffffffffffffffffffffffffffffffffffff16815260200190815260200160002081905550611a70816000808573ffffffffffffffffffffffffffffffffffffffff1673ffffffffffffffffffffffffffffffffffffffff1681526020019081526020016000205461182b90919063ffffffff16565b6000808473ffffffffffffffffffffffffffffffffffffffff1673ffffffffffffffffffffffffffffffffffffffff168152602001908152602001600020819055508173ffffffffffffffffffffffffffffffffffffffff168373ffffffffffffffffffffffffffffffffffffffff167fddf252ad1be2c89b69c2b068fc378daa952ba7f163c4a11628f55a4df523b3ef83604051611b0f9190612a75565b60405180910390a3505050565b6000838311158290611b64576040517f08c379a0000000000000000000000000000000000000000000000000000000008152600401611b5b9190612674565b60405180910390fd5b5060008385611b739190613865565b9050809150509392505050565b600073ffffffffffffffffffffffffffffffffffffffff168273ffffffffffffffffffffffffffffffffffffffff1603611bef576040517f08c379a0000000000000000000000000000000000000000000000000000000008152600401611be69061390b565b60405180910390fd5b611bfb82600083612295565b611c6681604051806060016040528060228152602001613ecc602291396000808673ffffffffffffffffffffffffffffffffffffffff1673ffffffffffffffffffffffffffffffffffffffff16815260200190815260200160002054611b1c9092919063ffffffff16565b6000808473ffffffffffffffffffffffffffffffffffffffff1673ffffffffffffffffffffffffffffffffffffffff16815260200190815260200160002081905550611cbd8160025461229a90919063ffffffff16565b600281905550600073ffffffffffffffffffffffffffffffffffffffff168273ffffffffffffffffffffffffffffffffffffffff167fddf252ad1be2c89b69c2b068fc378daa952ba7f163c4a11628f55a4df523b3ef83604051611d219190612a75565b60405180910390a35050565b611d5581600660008581526020019081526020016000206000016122e490919063ffffffff16565b15611dbd57611d6261154b565b73ffffffffffffffffffffffffffffffffffffffff168173ffffffffffffffffffffffffffffffffffffffff16837f2f8788117e7eff1d82e926ec794901d17c78024a50270940304540a733656f0d60405160405180910390a45b5050565b611de9816006600085815260200190815260200160002060000161231490919063ffffffff16565b15611e5157611df661154b565b73ffffffffffffffffffffffffffffffffffffffff168173ffffffffffffffffffffffffffffffffffffffff16837ff6391f5c32d9c69d2a47ea670b442974b53935d1edc7fd64eb21e047a839171b60405160405180910390a45b5050565b8060039081611e649190613ac2565b5050565b8060049081611e779190613ac2565b5050565b80600560006101000a81548160ff021916908360ff16021790555050565b80604051602001611eaa9190613c11565b60405160208183030381529060405260079081611ec79190613ac2565b5050565b611ed58282611d2d565b5050565b600860009054906101000a900460ff1615611f29576040517f08c379a0000000000000000000000000000000000000000000000000000000008152600401611f209061326a565b60405180910390fd5b611f338282612344565b6001600860006101000a81548160ff0219169083151502179055505050565b600073ffffffffffffffffffffffffffffffffffffffff168273ffffffffffffffffffffffffffffffffffffffff1603611fc1576040517f08c379a0000000000000000000000000000000000000000000000000000000008152600401611fb890613c7f565b60405180910390fd5b611fcd60008383612295565b611fe28160025461182b90919063ffffffff16565b600281905550612039816000808573ffffffffffffffffffffffffffffffffffffffff1673ffffffffffffffffffffffffffffffffffffffff1681526020019081526020016000205461182b90919063ffffffff16565b6000808473ffffffffffffffffffffffffffffffffffffffff1673ffffffffffffffffffffffffffffffffffffffff168152602001908152602001600020819055508173ffffffffffffffffffffffffffffffffffffffff16600073ffffffffffffffffffffffffffffffffffffffff167fddf252ad1be2c89b69c2b068fc378daa952ba7f163c4a11628f55a4df523b3ef836040516120d99190612a75565b60405180910390a35050565b60006120f483600001836123b4565b60001c905092915050565b6000612127836000018373ffffffffffffffffffffffffffffffffffffffff1660001b612428565b905092915050565b600061213d8260000161244b565b9050919050565b60003073ffffffffffffffffffffffffffffffffffffffff163373ffffffffffffffffffffffffffffffffffffffff16036121ed57600080368080601f016020809104026020016040519081016040528093929190818152602001838380828437600081840152601f19601f820116905080830192505050505050509050600080369050905073ffffffffffffffffffffffffffffffffffffffff8183015116925050506121f1565b3390505b90565b6000604051806080016040528060438152602001613eee60439139805190602001208260000151836020015184604001518051906020012060405160200161223f9493929190613c9f565b604051602081830303815290604052805190602001209050919050565b6000612266610bf0565b82604051602001612278929190613d51565b604051602081830303815290604052805190602001209050919050565b505050565b60006122dc83836040518060400160405280601e81526020017f536166654d6174683a207375627472616374696f6e206f766572666c6f770000815250611b1c565b905092915050565b600061230c836000018373ffffffffffffffffffffffffffffffffffffffff1660001b61245c565b905092915050565b600061233c836000018373ffffffffffffffffffffffffffffffffffffffff1660001b6124cc565b905092915050565b6040518060800160405280604f8152602001613f31604f913980519060200120828051906020012082805190602001203061237d610ddb565b60001b604051602001612394959493929190613d88565b604051602081830303815290604052805190602001206009819055505050565b6000818360000180549050116123ff576040517f08c379a00000000000000000000000000000000000000000000000000000000081526004016123f690613e4d565b60405180910390fd5b82600001828154811061241557612414613e6d565b5b9060005260206000200154905092915050565b600080836001016000848152602001908152602001600020541415905092915050565b600081600001805490509050919050565b60006124688383612428565b6124c15782600001829080600181540180825580915050600190039060005260206000200160009091909190915055826000018054905083600101600084815260200190815260200160002081905550600190506124c6565b600090505b92915050565b600080836001016000848152602001908152602001600020549050600081146125d85760006001826124fe9190613865565b90506000600186600001805490506125169190613865565b905060008660000182815481106125305761252f613e6d565b5b906000526020600020015490508087600001848154811061255457612553613e6d565b5b906000526020600020018190555060018361256f91906136a1565b876001016000838152602001908152602001600020819055508660000180548061259c5761259b613e9c565b5b600190038181906000526020600020016000905590558660010160008781526020019081526020016000206000905560019450505050506125de565b60009150505b92915050565b600081519050919050565b600082825260208201905092915050565b60005b8381101561261e578082015181840152602081019050612603565b60008484015250505050565b6000601f19601f8301169050919050565b6000612646826125e4565b61265081856125ef565b9350612660818560208601612600565b6126698161262a565b840191505092915050565b6000602082019050818103600083015261268e818461263b565b905092915050565b6000604051905090565b600080fd5b600080fd5b600073ffffffffffffffffffffffffffffffffffffffff82169050919050565b60006126d5826126aa565b9050919050565b6126e5816126ca565b81146126f057600080fd5b50565b600081359050612702816126dc565b92915050565b6000819050919050565b61271b81612708565b811461272657600080fd5b50565b60008135905061273881612712565b92915050565b60008060408385031215612755576127546126a0565b5b6000612763858286016126f3565b925050602061277485828601612729565b9150509250929050565b60008115159050919050565b6127938161277e565b82525050565b60006020820190506127ae600083018461278a565b92915050565b600081519050919050565b600082825260208201905092915050565b60006127db826127b4565b6127e581856127bf565b93506127f5818560208601612600565b6127fe8161262a565b840191505092915050565b6000602082019050818103600083015261282381846127d0565b905092915050565b600080fd5b600080fd5b7f4e487b7100000000000000000000000000000000000000000000000000000000600052604160045260246000fd5b61286d8261262a565b810181811067ffffffffffffffff8211171561288c5761288b612835565b5b80604052505050565b600061289f612696565b90506128ab8282612864565b919050565b600067ffffffffffffffff8211156128cb576128ca612835565b5b6128d48261262a565b9050602081019050919050565b82818337600083830152505050565b60006129036128fe846128b0565b612895565b90508281526020810184848401111561291f5761291e612830565b5b61292a8482856128e1565b509392505050565b600082601f8301126129475761294661282b565b5b81356129578482602086016128f0565b91505092915050565b6000819050919050565b61297381612960565b811461297e57600080fd5b50565b6000813590506129908161296a565b92915050565b600060ff82169050919050565b6129ac81612996565b81146129b757600080fd5b50565b6000813590506129c9816129a3565b92915050565b600080600080600060a086880312156129eb576129ea6126a0565b5b60006129f9888289016126f3565b955050602086013567ffffffffffffffff811115612a1a57612a196126a5565b5b612a2688828901612932565b9450506040612a3788828901612981565b9350506060612a4888828901612981565b9250506080612a59888289016129ba565b9150509295509295909350565b612a6f81612708565b82525050565b6000602082019050612a8a6000830184612a66565b92915050565b612a9981612960565b82525050565b6000602082019050612ab46000830184612a90565b92915050565b600080600060608486031215612ad357612ad26126a0565b5b6000612ae1868287016126f3565b9350506020612af2868287016126f3565b9250506040612b0386828701612729565b9150509250925092565b600060208284031215612b2357612b226126a0565b5b6000612b3184828501612981565b91505092915050565b600060208284031215612b5057612b4f6126a0565b5b6000612b5e848285016126f3565b91505092915050565b600060208284031215612b7d57612b7c6126a0565b5b6000612b8b84828501612729565b91505092915050565b60008060408385031215612bab57612baa6126a0565b5b6000612bb985828601612981565b9250506020612bca858286016126f3565b9150509250929050565b612bdd81612996565b82525050565b6000602082019050612bf86000830184612bd4565b92915050565b600080fd5b600080fd5b60008083601f840112612c1e57612c1d61282b565b5b8235905067ffffffffffffffff811115612c3b57612c3a612bfe565b5b602083019150836001820283011115612c5757612c56612c03565b5b9250929050565b600080600080600080600060a0888a031215612c7d57612c7c6126a0565b5b600088013567ffffffffffffffff811115612c9b57612c9a6126a5565b5b612ca78a828b01612c08565b9750975050602088013567ffffffffffffffff811115612cca57612cc96126a5565b5b612cd68a828b01612c08565b95509550506040612ce98a828b016129ba565b9350506060612cfa8a828b016126f3565b9250506080612d0b8a828b01612729565b91505092959891949750929550565b60008060408385031215612d3157612d306126a0565b5b6000612d3f85828601612981565b9250506020612d5085828601612729565b9150509250929050565b612d63816126ca565b82525050565b6000602082019050612d7e6000830184612d5a565b92915050565b60008083601f840112612d9a57612d9961282b565b5b8235905067ffffffffffffffff811115612db757612db6612bfe565b5b602083019150836001820283011115612dd357612dd2612c03565b5b9250929050565b600080600060408486031215612df357612df26126a0565b5b6000612e01868287016126f3565b935050602084013567ffffffffffffffff811115612e2257612e216126a5565b5b612e2e86828701612d84565b92509250509250925092565b60008060408385031215612e5157612e506126a0565b5b6000612e5f858286016126f3565b9250506020612e70858286016126f3565b9150509250929050565b7f4e487b7100000000000000000000000000000000000000000000000000000000600052602260045260246000fd5b60006002820490506001821680612ec157607f821691505b602082108103612ed457612ed3612e7a565b5b50919050565b7f5369676e657220616e64207369676e617475726520646f206e6f74206d61746360008201527f6800000000000000000000000000000000000000000000000000000000000000602082015250565b6000612f366021836125ef565b9150612f4182612eda565b604082019050919050565b60006020820190508181036000830152612f6581612f29565b9050919050565b6000612f77826126aa565b9050919050565b612f8781612f6c565b82525050565b6000606082019050612fa26000830186612d5a565b612faf6020830185612f7e565b8181036040830152612fc181846127d0565b9050949350505050565b600081905092915050565b6000612fe1826127b4565b612feb8185612fcb565b9350612ffb818560208601612600565b80840191505092915050565b60008160601b9050919050565b600061301f82613007565b9050919050565b600061303182613014565b9050919050565b613049613044826126ca565b613026565b82525050565b600061305b8285612fd6565b91506130678284613038565b6014820191508190509392505050565b60006130838284612fd6565b915081905092915050565b7f46756e6374696f6e2063616c6c206e6f74207375636365737366756c00000000600082015250565b60006130c4601c836125ef565b91506130cf8261308e565b602082019050919050565b600060208201905081810360008301526130f3816130b7565b9050919050565b7f416363657373436f6e74726f6c3a2073656e646572206d75737420626520616e60008201527f2061646d696e20746f206772616e740000000000000000000000000000000000602082015250565b6000613156602f836125ef565b9150613161826130fa565b604082019050919050565b6000602082019050818103600083015261318581613149565b9050919050565b7f416363657373436f6e74726f6c3a2063616e206f6e6c792072656e6f756e636560008201527f20726f6c657320666f722073656c660000000000000000000000000000000000602082015250565b60006131e8602f836125ef565b91506131f38261318c565b604082019050919050565b60006020820190508181036000830152613217816131db565b9050919050565b7f616c726561647920696e69746564000000000000000000000000000000000000600082015250565b6000613254600e836125ef565b915061325f8261321e565b602082019050919050565b6000602082019050818103600083015261328381613247565b9050919050565b600081905092915050565b7f4368696c64000000000000000000000000000000000000000000000000000000600082015250565b60006132cb60058361328a565b91506132d682613295565b600582019050919050565b60006132ed838561328a565b93506132fa8385846128e1565b82840190509392505050565b6000613311826132be565b915061331e8284866132e1565b91508190509392505050565b60008190508160005260206000209050919050565b6000815461334c81612ea9565b61335681866125ef565b945060018216600081146133715760018114613387576133ba565b60ff1983168652811515602002860193506133ba565b6133908561332a565b60005b838110156133b257815481890152600182019150602081019050613393565b808801955050505b50505092915050565b600060208201905081810360008301526133dd818461333f565b905092915050565b7f416363657373436f6e74726f6c3a2073656e646572206d75737420626520616e60008201527f2061646d696e20746f207265766f6b6500000000000000000000000000000000602082015250565b60006134416030836125ef565b915061344c826133e5565b604082019050919050565b6000602082019050818103600083015261347081613434565b9050919050565b7f45524332303a20617070726f76652066726f6d20746865207a65726f2061646460008201527f7265737300000000000000000000000000000000000000000000000000000000602082015250565b60006134d36024836125ef565b91506134de82613477565b604082019050919050565b60006020820190508181036000830152613502816134c6565b9050919050565b7f45524332303a20617070726f766520746f20746865207a65726f20616464726560008201527f7373000000000000000000000000000000000000000000000000000000000000602082015250565b60006135656022836125ef565b915061357082613509565b604082019050919050565b6000602082019050818103600083015261359481613558565b9050919050565b7f4e61746976654d6574615472616e73616374696f6e3a20494e56414c49445f5360008201527f49474e4552000000000000000000000000000000000000000000000000000000602082015250565b60006135f76025836125ef565b91506136028261359b565b604082019050919050565b60006020820190508181036000830152613626816135ea565b9050919050565b60006080820190506136426000830187612a90565b61364f6020830186612bd4565b61365c6040830185612a90565b6136696060830184612a90565b95945050505050565b7f4e487b7100000000000000000000000000000000000000000000000000000000600052601160045260246000fd5b60006136ac82612708565b91506136b783612708565b92508282019050808211156136cf576136ce613672565b5b92915050565b7f536166654d6174683a206164646974696f6e206f766572666c6f770000000000600082015250565b600061370b601b836125ef565b9150613716826136d5565b602082019050919050565b6000602082019050818103600083015261373a816136fe565b9050919050565b7f45524332303a207472616e736665722066726f6d20746865207a65726f20616460008201527f6472657373000000000000000000000000000000000000000000000000000000602082015250565b600061379d6025836125ef565b91506137a882613741565b604082019050919050565b600060208201905081810360008301526137cc81613790565b9050919050565b7f45524332303a207472616e7366657220746f20746865207a65726f206164647260008201527f6573730000000000000000000000000000000000000000000000000000000000602082015250565b600061382f6023836125ef565b915061383a826137d3565b604082019050919050565b6000602082019050818103600083015261385e81613822565b9050919050565b600061387082612708565b915061387b83612708565b925082820390508181111561389357613892613672565b5b92915050565b7f45524332303a206275726e2066726f6d20746865207a65726f2061646472657360008201527f7300000000000000000000000000000000000000000000000000000000000000602082015250565b60006138f56021836125ef565b915061390082613899565b604082019050919050565b60006020820190508181036000830152613924816138e8565b9050919050565b60006020601f8301049050919050565b600082821b905092915050565b6000600883026139787fffffffffffffffffffffffffffffffffffffffffffffffffffffffffffffffff8261393b565b613982868361393b565b95508019841693508086168417925050509392505050565b6000819050919050565b60006139bf6139ba6139b584612708565b61399a565b612708565b9050919050565b6000819050919050565b6139d9836139a4565b6139ed6139e5826139c6565b848454613948565b825550505050565b600090565b613a026139f5565b613a0d8184846139d0565b505050565b5b81811015613a3157613a266000826139fa565b600181019050613a13565b5050565b601f821115613a7657613a478161332a565b613a508461392b565b81016020851015613a5f578190505b613a73613a6b8561392b565b830182613a12565b50505b505050565b600082821c905092915050565b6000613a9960001984600802613a7b565b1980831691505092915050565b6000613ab28383613a88565b9150826002028217905092915050565b613acb826125e4565b67ffffffffffffffff811115613ae457613ae3612835565b5b613aee8254612ea9565b613af9828285613a35565b600060209050601f831160018114613b2c5760008415613b1a578287015190505b613b248582613aa6565b865550613b8c565b601f198416613b3a8661332a565b60005b82811015613b6257848901518255600182019150602085019450602081019050613b3d565b86831015613b7f5784890151613b7b601f891682613a88565b8355505b6001600288020188555050505b505050505050565b6000613b9f826125e4565b613ba9818561328a565b9350613bb9818560208601612600565b80840191505092915050565b7f3a20494e53554646494349454e545f5045524d495353494f4e53000000000000600082015250565b6000613bfb601a8361328a565b9150613c0682613bc5565b601a82019050919050565b6000613c1d8284613b94565b9150613c2882613bee565b915081905092915050565b7f45524332303a206d696e7420746f20746865207a65726f206164647265737300600082015250565b6000613c69601f836125ef565b9150613c7482613c33565b602082019050919050565b60006020820190508181036000830152613c9881613c5c565b9050919050565b6000608082019050613cb46000830187612a90565b613cc16020830186612a66565b613cce6040830185612d5a565b613cdb6060830184612a90565b95945050505050565b7f1901000000000000000000000000000000000000000000000000000000000000600082015250565b6000613d1a60028361328a565b9150613d2582613ce4565b600282019050919050565b6000819050919050565b613d4b613d4682612960565b613d30565b82525050565b6000613d5c82613d0d565b9150613d688285613d3a565b602082019150613d788284613d3a565b6020820191508190509392505050565b600060a082019050613d9d6000830188612a90565b613daa6020830187612a90565b613db76040830186612a90565b613dc46060830185612d5a565b613dd16080830184612a90565b9695505050505050565b7f456e756d657261626c655365743a20696e646578206f7574206f6620626f756e60008201527f6473000000000000000000000000000000000000000000000000000000000000602082015250565b6000613e376022836125ef565b9150613e4282613ddb565b604082019050919050565b60006020820190508181036000830152613e6681613e2a565b9050919050565b7f4e487b7100000000000000000000000000000000000000000000000000000000600052603260045260246000fd5b7f4e487b7100000000000000000000000000000000000000000000000000000000600052603160045260246000fdfe45524332303a206275726e20616d6f756e7420657863656564732062616c616e63654d6574615472616e73616374696f6e2875696e74323536206e6f6e63652c616464726573732066726f6d2c62797465732066756e6374696f6e5369676e617475726529454950373132446f6d61696e28737472696e67206e616d652c737472696e672076657273696f6e2c6164647265737320766572696679696e67436f6e74726163742c627974657333322073616c742945524332303a207472616e7366657220616d6f756e7420657863656564732062616c616e636545524332303a207472616e7366657220616d6f756e74206578636565647320616c6c6f77616e636545524332303a2064656372656173656420616c6c6f77616e63652062656c6f77207a65726fa2646970667358221220b96cfbf217c4ece6e87aa69b83bc250ab08b9d59089a4a0a635fc4b6d6a913d864736f6c63430008110033",
    "linkReferences": {},
    "deployedLinkReferences": {}
}