{
    "_format": "hh-sol-artifact-1",
    "contractName": "TokenFaucet",
    "sourceName": "contracts/TokenFaucet.sol",
    "abi": [
        {
            "inputs": [
                {
                    "internalType": "string",
                    "name": "_name",
                    "type": "string"
                },
                {
                    "internalType": "string",
                    "name": "_symbol",
                    "type": "string"
                },
                {
                    "internalType": "uint8",
                    "name": "_decimals",
                    "type": "uint8"
                },
                {
                    "internalType": "address",
                    "name": "_forwarder",
                    "type": "address"
                }
            ],
            "stateMutability": "nonpayable",
            "type": "constructor"
        },
        {
            "anonymous": false,
            "inputs": [
                {
                    "indexed": true,
                    "internalType": "address",
                    "name": "owner",
                    "type": "address"
                },
                {
                    "indexed": true,
                    "internalType": "address",
                    "name": "spender",
                    "type": "address"
                },
                {
                    "indexed": false,
                    "internalType": "uint256",
                    "name": "amount",
                    "type": "uint256"
                }
            ],
            "name": "Approval",
            "type": "event"
        },
        {
            "anonymous": false,
            "inputs": [
                {
                    "indexed": true,
                    "internalType": "address",
                    "name": "from",
                    "type": "address"
                },
                {
                    "indexed": true,
                    "internalType": "address",
                    "name": "to",
                    "type": "address"
                },
                {
                    "indexed": false,
                    "internalType": "uint256",
                    "name": "amount",
                    "type": "uint256"
                }
            ],
            "name": "Transfer",
            "type": "event"
        },
        {
            "inputs": [],
            "name": "DOMAIN_SEPARATOR",
            "outputs": [
                {
                    "internalType": "bytes32",
                    "name": "",
                    "type": "bytes32"
                }
            ],
            "stateMutability": "view",
            "type": "function"
        },
        {
            "inputs": [
                {
                    "internalType": "address",
                    "name": "",
                    "type": "address"
                },
                {
                    "internalType": "address",
                    "name": "",
                    "type": "address"
                }
            ],
            "name": "allowance",
            "outputs": [
                {
                    "internalType": "uint256",
                    "name": "",
                    "type": "uint256"
                }
            ],
            "stateMutability": "view",
            "type": "function"
        },
        {
            "inputs": [
                {
                    "internalType": "address",
                    "name": "spender",
                    "type": "address"
                },
                {
                    "internalType": "uint256",
                    "name": "amount",
                    "type": "uint256"
                }
            ],
            "name": "approve",
            "outputs": [
                {
                    "internalType": "bool",
                    "name": "",
                    "type": "bool"
                }
            ],
            "stateMutability": "nonpayable",
            "type": "function"
        },
        {
            "inputs": [
                {
                    "internalType": "address",
                    "name": "",
                    "type": "address"
                }
            ],
            "name": "balanceOf",
            "outputs": [
                {
                    "internalType": "uint256",
                    "name": "",
                    "type": "uint256"
                }
            ],
            "stateMutability": "view",
            "type": "function"
        },
        {
            "inputs": [],
            "name": "claim",
            "outputs": [
                {
                    "internalType": "bool",
                    "name": "",
                    "type": "bool"
                }
            ],
            "stateMutability": "nonpayable",
            "type": "function"
        },
        {
            "inputs": [],
            "name": "decimals",
            "outputs": [
                {
                    "internalType": "uint8",
                    "name": "",
                    "type": "uint8"
                }
            ],
            "stateMutability": "view",
            "type": "function"
        },
        {
            "inputs": [],
            "name": "getTrustedForwarder",
            "outputs": [
                {
                    "internalType": "address",
                    "name": "forwarder",
                    "type": "address"
                }
            ],
            "stateMutability": "view",
            "type": "function"
        },
        {
            "inputs": [
                {
                    "internalType": "address",
                    "name": "forwarder",
                    "type": "address"
                }
            ],
            "name": "isTrustedForwarder",
            "outputs": [
                {
                    "internalType": "bool",
                    "name": "",
                    "type": "bool"
                }
            ],
            "stateMutability": "view",
            "type": "function"
        },
        {
            "inputs": [],
            "name": "name",
            "outputs": [
                {
                    "internalType": "string",
                    "name": "",
                    "type": "string"
                }
            ],
            "stateMutability": "view",
            "type": "function"
        },
        {
            "inputs": [
                {
                    "internalType": "address",
                    "name": "",
                    "type": "address"
                }
            ],
            "name": "nonces",
            "outputs": [
                {
                    "internalType": "uint256",
                    "name": "",
                    "type": "uint256"
                }
            ],
            "stateMutability": "view",
            "type": "function"
        },
        {
            "inputs": [
                {
                    "internalType": "address",
                    "name": "owner",
                    "type": "address"
                },
                {
                    "internalType": "address",
                    "name": "spender",
                    "type": "address"
                },
                {
                    "internalType": "uint256",
                    "name": "value",
                    "type": "uint256"
                },
                {
                    "internalType": "uint256",
                    "name": "deadline",
                    "type": "uint256"
                },
                {
                    "internalType": "uint8",
                    "name": "v",
                    "type": "uint8"
                },
                {
                    "internalType": "bytes32",
                    "name": "r",
                    "type": "bytes32"
                },
                {
                    "internalType": "bytes32",
                    "name": "s",
                    "type": "bytes32"
                }
            ],
            "name": "permit",
            "outputs": [],
            "stateMutability": "nonpayable",
            "type": "function"
        },
        {
            "inputs": [],
            "name": "symbol",
            "outputs": [
                {
                    "internalType": "string",
                    "name": "",
                    "type": "string"
                }
            ],
            "stateMutability": "view",
            "type": "function"
        },
        {
            "inputs": [],
            "name": "totalSupply",
            "outputs": [
                {
                    "internalType": "uint256",
                    "name": "",
                    "type": "uint256"
                }
            ],
            "stateMutability": "view",
            "type": "function"
        },
        {
            "inputs": [
                {
                    "internalType": "address",
                    "name": "to",
                    "type": "address"
                },
                {
                    "internalType": "uint256",
                    "name": "amount",
                    "type": "uint256"
                }
            ],
            "name": "transfer",
            "outputs": [
                {
                    "internalType": "bool",
                    "name": "",
                    "type": "bool"
                }
            ],
            "stateMutability": "nonpayable",
            "type": "function"
        },
        {
            "inputs": [
                {
                    "internalType": "address",
                    "name": "from",
                    "type": "address"
                },
                {
                    "internalType": "address",
                    "name": "to",
                    "type": "address"
                },
                {
                    "internalType": "uint256",
                    "name": "amount",
                    "type": "uint256"
                }
            ],
            "name": "transferFrom",
            "outputs": [
                {
                    "internalType": "bool",
                    "name": "",
                    "type": "bool"
                }
            ],
            "stateMutability": "nonpayable",
            "type": "function"
        },
        {
            "stateMutability": "payable",
            "type": "receive"
        }
    ],
    "bytecode": "0x60e0604052600a6007553480156200001657600080fd5b50604051620021663803806200216683398181016040528101906200003c9190620003b7565b8383838260019081620000509190620006b2565b508160029081620000629190620006b2565b508060ff1660808160ff16815250504660a0818152505062000089620000ae60201b60201c565b60c08181525050505050620000a4816200013e60201b60201c565b50505050620008fb565b60007f8b73c3c69bb8fe3d512ecc4cf759cc79239f7b179b0ffacaa9a75d522b39400f6001604051620000e2919062000848565b60405180910390207fc89efdaa54c0f20c7adf612882df0950f5a951637e0307cdcb4c672f298b8bc64630604051602001620001239594939291906200089e565b60405160208183030381529060405280519060200120905090565b806000806101000a81548173ffffffffffffffffffffffffffffffffffffffff021916908373ffffffffffffffffffffffffffffffffffffffff16021790555050565b6000604051905090565b600080fd5b600080fd5b600080fd5b600080fd5b6000601f19601f8301169050919050565b7f4e487b7100000000000000000000000000000000000000000000000000000000600052604160045260246000fd5b620001ea826200019f565b810181811067ffffffffffffffff821117156200020c576200020b620001b0565b5b80604052505050565b60006200022162000181565b90506200022f8282620001df565b919050565b600067ffffffffffffffff821115620002525762000251620001b0565b5b6200025d826200019f565b9050602081019050919050565b60005b838110156200028a5780820151818401526020810190506200026d565b60008484015250505050565b6000620002ad620002a78462000234565b62000215565b905082815260208101848484011115620002cc57620002cb6200019a565b5b620002d98482856200026a565b509392505050565b600082601f830112620002f957620002f862000195565b5b81516200030b84826020860162000296565b91505092915050565b600060ff82169050919050565b6200032c8162000314565b81146200033857600080fd5b50565b6000815190506200034c8162000321565b92915050565b600073ffffffffffffffffffffffffffffffffffffffff82169050919050565b60006200037f8262000352565b9050919050565b620003918162000372565b81146200039d57600080fd5b50565b600081519050620003b18162000386565b92915050565b60008060008060808587031215620003d457620003d36200018b565b5b600085015167ffffffffffffffff811115620003f557620003f462000190565b5b6200040387828801620002e1565b945050602085015167ffffffffffffffff81111562000427576200042662000190565b5b6200043587828801620002e1565b935050604062000448878288016200033b565b92505060606200045b87828801620003a0565b91505092959194509250565b600081519050919050565b7f4e487b7100000000000000000000000000000000000000000000000000000000600052602260045260246000fd5b60006002820490506001821680620004ba57607f821691505b602082108103620004d057620004cf62000472565b5b50919050565b60008190508160005260206000209050919050565b60006020601f8301049050919050565b600082821b905092915050565b6000600883026200053a7fffffffffffffffffffffffffffffffffffffffffffffffffffffffffffffffff82620004fb565b620005468683620004fb565b95508019841693508086168417925050509392505050565b6000819050919050565b6000819050919050565b6000620005936200058d62000587846200055e565b62000568565b6200055e565b9050919050565b6000819050919050565b620005af8362000572565b620005c7620005be826200059a565b84845462000508565b825550505050565b600090565b620005de620005cf565b620005eb818484620005a4565b505050565b5b81811015620006135762000607600082620005d4565b600181019050620005f1565b5050565b601f82111562000662576200062c81620004d6565b6200063784620004eb565b8101602085101562000647578190505b6200065f6200065685620004eb565b830182620005f0565b50505b505050565b600082821c905092915050565b6000620006876000198460080262000667565b1980831691505092915050565b6000620006a2838362000674565b9150826002028217905092915050565b620006bd8262000467565b67ffffffffffffffff811115620006d957620006d8620001b0565b5b620006e58254620004a1565b620006f282828562000617565b600060209050601f8311600181146200072a576000841562000715578287015190505b62000721858262000694565b86555062000791565b601f1984166200073a86620004d6565b60005b8281101562000764578489015182556001820191506020850194506020810190506200073d565b8683101562000784578489015162000780601f89168262000674565b8355505b6001600288020188555050505b505050505050565b600081905092915050565b60008190508160005260206000209050919050565b60008154620007c881620004a1565b620007d4818662000799565b94506001821660008114620007f2576001811462000808576200083f565b60ff19831686528115158202860193506200083f565b6200081385620007a4565b60005b83811015620008375781548189015260018201915060208101905062000816565b838801955050505b50505092915050565b6000620008568284620007b9565b915081905092915050565b6000819050919050565b620008768162000861565b82525050565b62000887816200055e565b82525050565b620008988162000372565b82525050565b600060a082019050620008b560008301886200086b565b620008c460208301876200086b565b620008d360408301866200086b565b620008e260608301856200087c565b620008f160808301846200088d565b9695505050505050565b60805160a05160c05161183b6200092b60003960006108410152600061080d015260006107e7015261183b6000f3fe6080604052600436106100ec5760003560e01c8063572b6c051161008a578063a9059cbb11610059578063a9059cbb1461032b578063ce1b815f14610368578063d505accf14610393578063dd62ed3e146103bc576100f3565b8063572b6c051461024957806370a08231146102865780637ecebe00146102c357806395d89b4114610300576100f3565b806323b872dd116100c657806323b872dd1461018b578063313ce567146101c85780633644e515146101f35780634e71d92d1461021e576100f3565b806306fdde03146100f8578063095ea7b31461012357806318160ddd14610160576100f3565b366100f357005b600080fd5b34801561010457600080fd5b5061010d6103f9565b60405161011a919061102a565b60405180910390f35b34801561012f57600080fd5b5061014a600480360381019061014591906110e5565b610487565b6040516101579190611140565b60405180910390f35b34801561016c57600080fd5b50610175610587565b604051610182919061116a565b60405180910390f35b34801561019757600080fd5b506101b260048036038101906101ad9190611185565b61058d565b6040516101bf9190611140565b60405180910390f35b3480156101d457600080fd5b506101dd6107e5565b6040516101ea91906111f4565b60405180910390f35b3480156101ff57600080fd5b50610208610809565b6040516102159190611228565b60405180910390f35b34801561022a57600080fd5b50610233610866565b6040516102409190611140565b60405180910390f35b34801561025557600080fd5b50610270600480360381019061026b9190611243565b610887565b60405161027d9190611140565b60405180910390f35b34801561029257600080fd5b506102ad60048036038101906102a89190611243565b6108e0565b6040516102ba919061116a565b60405180910390f35b3480156102cf57600080fd5b506102ea60048036038101906102e59190611243565b6108f8565b6040516102f7919061116a565b60405180910390f35b34801561030c57600080fd5b50610315610910565b604051610322919061102a565b60405180910390f35b34801561033757600080fd5b50610352600480360381019061034d91906110e5565b61099e565b60405161035f9190611140565b60405180910390f35b34801561037457600080fd5b5061037d610ac0565b60405161038a919061127f565b60405180910390f35b34801561039f57600080fd5b506103ba60048036038101906103b591906112f2565b610ae9565b005b3480156103c857600080fd5b506103e360048036038101906103de9190611394565b610de2565b6040516103f0919061116a565b60405180910390f35b6001805461040690611403565b80601f016020809104026020016040519081016040528092919081815260200182805461043290611403565b801561047f5780601f106104545761010080835404028352916020019161047f565b820191906000526020600020905b81548152906001019060200180831161046257829003601f168201915b505050505081565b60008160056000610496610e07565b73ffffffffffffffffffffffffffffffffffffffff1673ffffffffffffffffffffffffffffffffffffffff16815260200190815260200160002060008573ffffffffffffffffffffffffffffffffffffffff1673ffffffffffffffffffffffffffffffffffffffff168152602001908152602001600020819055508273ffffffffffffffffffffffffffffffffffffffff16610530610e07565b73ffffffffffffffffffffffffffffffffffffffff167f8c5be1e5ebec7d5bd14f71427d1e84f3dd0314c0f7b2291e5b200ac8c7c3b92584604051610575919061116a565b60405180910390a36001905092915050565b60035481565b600080600560008673ffffffffffffffffffffffffffffffffffffffff1673ffffffffffffffffffffffffffffffffffffffff16815260200190815260200160002060006105d9610e07565b73ffffffffffffffffffffffffffffffffffffffff1673ffffffffffffffffffffffffffffffffffffffff1681526020019081526020016000205490507fffffffffffffffffffffffffffffffffffffffffffffffffffffffffffffffff81146106d15782816106499190611463565b600560008773ffffffffffffffffffffffffffffffffffffffff1673ffffffffffffffffffffffffffffffffffffffff1681526020019081526020016000206000610692610e07565b73ffffffffffffffffffffffffffffffffffffffff1673ffffffffffffffffffffffffffffffffffffffff168152602001908152602001600020819055505b82600460008773ffffffffffffffffffffffffffffffffffffffff1673ffffffffffffffffffffffffffffffffffffffff16815260200190815260200160002060008282546107209190611463565b9250508190555082600460008673ffffffffffffffffffffffffffffffffffffffff1673ffffffffffffffffffffffffffffffffffffffff168152602001908152602001600020600082825401925050819055508373ffffffffffffffffffffffffffffffffffffffff168573ffffffffffffffffffffffffffffffffffffffff167fddf252ad1be2c89b69c2b068fc378daa952ba7f163c4a11628f55a4df523b3ef856040516107d1919061116a565b60405180910390a360019150509392505050565b7f000000000000000000000000000000000000000000000000000000000000000081565b60007f0000000000000000000000000000000000000000000000000000000000000000461461083f5761083a610e3e565b610861565b7f00000000000000000000000000000000000000000000000000000000000000005b905090565b600080610871610e07565b905061087f81600754610eca565b600191505090565b60008060009054906101000a900473ffffffffffffffffffffffffffffffffffffffff1673ffffffffffffffffffffffffffffffffffffffff168273ffffffffffffffffffffffffffffffffffffffff16149050919050565b60046020528060005260406000206000915090505481565b60066020528060005260406000206000915090505481565b6002805461091d90611403565b80601f016020809104026020016040519081016040528092919081815260200182805461094990611403565b80156109965780601f1061096b57610100808354040283529160200191610996565b820191906000526020600020905b81548152906001019060200180831161097957829003601f168201915b505050505081565b600081600460006109ad610e07565b73ffffffffffffffffffffffffffffffffffffffff1673ffffffffffffffffffffffffffffffffffffffff16815260200190815260200160002060008282546109f69190611463565b9250508190555081600460008573ffffffffffffffffffffffffffffffffffffffff1673ffffffffffffffffffffffffffffffffffffffff168152602001908152602001600020600082825401925050819055508273ffffffffffffffffffffffffffffffffffffffff16610a69610e07565b73ffffffffffffffffffffffffffffffffffffffff167fddf252ad1be2c89b69c2b068fc378daa952ba7f163c4a11628f55a4df523b3ef84604051610aae919061116a565b60405180910390a36001905092915050565b60008060009054906101000a900473ffffffffffffffffffffffffffffffffffffffff16905090565b42841015610b2c576040517f08c379a0000000000000000000000000000000000000000000000000000000008152600401610b23906114e3565b60405180910390fd5b60006001610b38610809565b7f6e71edae12b1b97f4d1f60370fef10105fa2faae0126114a169c64845d6126c98a8a8a600660008f73ffffffffffffffffffffffffffffffffffffffff1673ffffffffffffffffffffffffffffffffffffffff1681526020019081526020016000206000815480929190600101919050558b604051602001610bc096959493929190611503565b60405160208183030381529060405280519060200120604051602001610be79291906115dc565b6040516020818303038152906040528051906020012085858560405160008152602001604052604051610c1d9493929190611613565b6020604051602081039080840390855afa158015610c3f573d6000803e3d6000fd5b505050602060405103519050600073ffffffffffffffffffffffffffffffffffffffff168173ffffffffffffffffffffffffffffffffffffffff1614158015610cb357508773ffffffffffffffffffffffffffffffffffffffff168173ffffffffffffffffffffffffffffffffffffffff16145b610cf2576040517f08c379a0000000000000000000000000000000000000000000000000000000008152600401610ce9906116a4565b60405180910390fd5b85600560008373ffffffffffffffffffffffffffffffffffffffff1673ffffffffffffffffffffffffffffffffffffffff16815260200190815260200160002060008973ffffffffffffffffffffffffffffffffffffffff1673ffffffffffffffffffffffffffffffffffffffff16815260200190815260200160002081905550508573ffffffffffffffffffffffffffffffffffffffff168773ffffffffffffffffffffffffffffffffffffffff167f8c5be1e5ebec7d5bd14f71427d1e84f3dd0314c0f7b2291e5b200ac8c7c3b92587604051610dd1919061116a565b60405180910390a350505050505050565b6005602052816000526040600020602052806000526040600020600091509150505481565b60006014600036905010158015610e235750610e2233610887565b5b15610e3757601436033560601c9050610e3b565b3390505b90565b60007f8b73c3c69bb8fe3d512ecc4cf759cc79239f7b179b0ffacaa9a75d522b39400f6001604051610e709190611767565b60405180910390207fc89efdaa54c0f20c7adf612882df0950f5a951637e0307cdcb4c672f298b8bc64630604051602001610eaf95949392919061177e565b60405160208183030381529060405280519060200120905090565b8060036000828254610edc91906117d1565b9250508190555080600460008473ffffffffffffffffffffffffffffffffffffffff1673ffffffffffffffffffffffffffffffffffffffff168152602001908152602001600020600082825401925050819055508173ffffffffffffffffffffffffffffffffffffffff16600073ffffffffffffffffffffffffffffffffffffffff167fddf252ad1be2c89b69c2b068fc378daa952ba7f163c4a11628f55a4df523b3ef83604051610f8e919061116a565b60405180910390a35050565b600081519050919050565b600082825260208201905092915050565b60005b83811015610fd4578082015181840152602081019050610fb9565b60008484015250505050565b6000601f19601f8301169050919050565b6000610ffc82610f9a565b6110068185610fa5565b9350611016818560208601610fb6565b61101f81610fe0565b840191505092915050565b600060208201905081810360008301526110448184610ff1565b905092915050565b600080fd5b600073ffffffffffffffffffffffffffffffffffffffff82169050919050565b600061107c82611051565b9050919050565b61108c81611071565b811461109757600080fd5b50565b6000813590506110a981611083565b92915050565b6000819050919050565b6110c2816110af565b81146110cd57600080fd5b50565b6000813590506110df816110b9565b92915050565b600080604083850312156110fc576110fb61104c565b5b600061110a8582860161109a565b925050602061111b858286016110d0565b9150509250929050565b60008115159050919050565b61113a81611125565b82525050565b60006020820190506111556000830184611131565b92915050565b611164816110af565b82525050565b600060208201905061117f600083018461115b565b92915050565b60008060006060848603121561119e5761119d61104c565b5b60006111ac8682870161109a565b93505060206111bd8682870161109a565b92505060406111ce868287016110d0565b9150509250925092565b600060ff82169050919050565b6111ee816111d8565b82525050565b600060208201905061120960008301846111e5565b92915050565b6000819050919050565b6112228161120f565b82525050565b600060208201905061123d6000830184611219565b92915050565b6000602082840312156112595761125861104c565b5b60006112678482850161109a565b91505092915050565b61127981611071565b82525050565b60006020820190506112946000830184611270565b92915050565b6112a3816111d8565b81146112ae57600080fd5b50565b6000813590506112c08161129a565b92915050565b6112cf8161120f565b81146112da57600080fd5b50565b6000813590506112ec816112c6565b92915050565b600080600080600080600060e0888a0312156113115761131061104c565b5b600061131f8a828b0161109a565b97505060206113308a828b0161109a565b96505060406113418a828b016110d0565b95505060606113528a828b016110d0565b94505060806113638a828b016112b1565b93505060a06113748a828b016112dd565b92505060c06113858a828b016112dd565b91505092959891949750929550565b600080604083850312156113ab576113aa61104c565b5b60006113b98582860161109a565b92505060206113ca8582860161109a565b9150509250929050565b7f4e487b7100000000000000000000000000000000000000000000000000000000600052602260045260246000fd5b6000600282049050600182168061141b57607f821691505b60208210810361142e5761142d6113d4565b5b50919050565b7f4e487b7100000000000000000000000000000000000000000000000000000000600052601160045260246000fd5b600061146e826110af565b9150611479836110af565b925082820390508181111561149157611490611434565b5b92915050565b7f5045524d49545f444541444c494e455f45585049524544000000000000000000600082015250565b60006114cd601783610fa5565b91506114d882611497565b602082019050919050565b600060208201905081810360008301526114fc816114c0565b9050919050565b600060c0820190506115186000830189611219565b6115256020830188611270565b6115326040830187611270565b61153f606083018661115b565b61154c608083018561115b565b61155960a083018461115b565b979650505050505050565b600081905092915050565b7f1901000000000000000000000000000000000000000000000000000000000000600082015250565b60006115a5600283611564565b91506115b08261156f565b600282019050919050565b6000819050919050565b6115d66115d18261120f565b6115bb565b82525050565b60006115e782611598565b91506115f382856115c5565b60208201915061160382846115c5565b6020820191508190509392505050565b60006080820190506116286000830187611219565b61163560208301866111e5565b6116426040830185611219565b61164f6060830184611219565b95945050505050565b7f494e56414c49445f5349474e4552000000000000000000000000000000000000600082015250565b600061168e600e83610fa5565b915061169982611658565b602082019050919050565b600060208201905081810360008301526116bd81611681565b9050919050565b600081905092915050565b60008190508160005260206000209050919050565b600081546116f181611403565b6116fb81866116c4565b94506001821660008114611716576001811461172b5761175e565b60ff198316865281151582028601935061175e565b611734856116cf565b60005b8381101561175657815481890152600182019150602081019050611737565b838801955050505b50505092915050565b600061177382846116e4565b915081905092915050565b600060a0820190506117936000830188611219565b6117a06020830187611219565b6117ad6040830186611219565b6117ba606083018561115b565b6117c76080830184611270565b9695505050505050565b60006117dc826110af565b91506117e7836110af565b92508282019050808211156117ff576117fe611434565b5b9291505056fea2646970667358221220c0ff408ee45b394f1925cc8cd78d6dc4295a0851feb542ca9410269e3810353b64736f6c63430008110033",
    "linkReferences": {},
    "deployedLinkReferences": {}
}